:100000000C94F7000C941F010C941F010C941F0119
:100010000C941F010C941F010C941F010C946F0A87
:100020000C941F010C941F010C941F010C941F01D0
:100030000C941F010C94AE0C0C941F010C941F0126
:100040000C94490B0C941F010C94170B0C94F10A9F
:100050000C941F010C941F010C941F010C941F01A0
:100060000C94930B0C941F01084AD73B3BCE016EB6
:1000700084BCBFFDC12F3D6C74319ABD56833DDAFF
:100080003D00C77F11BED9E4BB4C3E916BAAAABE0E
:10009000000000803F0000407A10F35A00A0724E2A
:1000A00018090010A5D4E80000E87648170000E41D
:1000B0000B54020000CA9A3B000000E1F505000065
:1000C00080969800000040420F000000A0860100CA
:1000D0000000102700000000E8030000000064009A
:1000E000000000000A000000000001000000000005
:1000F0002C76D888DC674F0823DFC1DFAE59E1B129
:10010000B796E5E3E453C63AE651997696E8E6C237
:100110008426EB898C9B62ED407C6FFCEFBC9C9F3E
:1001200040F2BAA56FA5F490055A2AF75C936B6C60
:10013000F9676DC11BFCE0E40D47FEF520E6B50054
:10014000D0ED902E0300943577050080841E0800C2
:1001500000204E0A000000C80C333333330F986E72
:1001600012831141EF8D2114893BE65516CFFEE62F
:10017000DB18D1844B381BF77C1D901DA4BBE424F5
:10018000203284725E228100C9F124ECA1E53D2772
:1001900000000000240027002A00000000002300C7
:1001A00026002900000000080002010000030407E7
:1001B0000000000000000000010204081020408040
:1001C00001020408102001020408102000000000B1
:1001D000250028002B000404040404040404020283
:1001E0000202020203030303030302006F0D112442
:1001F0001FBECFEFD8E0DEBFCDBF14E0A0E0B1E07E
:10020000E0E5FFE302C005900D92A431B107D9F7F4
:1002100025E0A4E1B4E001C01D92AE38B207E1F7D9
:1002200010E0C7EFD0E004C02197FE010E94AE1D90
:10023000C63FD107C9F70E94030E0C94A61F0C9469
:100240000000AF92BF92CF92DF92EF92FF920F9396
:100250001F93CF93DF936C017B018B01040F151F5C
:10026000EB015E01AE18BF08C017D10759F06991C4
:10027000D601ED91FC910190F081E02DC601099528
:10028000892B79F7C501DF91CF911F910F91FF90D5
:10029000EF90DF90CF90BF90AF900895FC01538D09
:1002A000448D252F30E0842F90E0821B930B541750
:1002B00010F0CF96089501970895FC01918D828DDD
:1002C000981761F0A28DAE0FBF2FB11D5D968C9176
:1002D000928D9F5F9F73928F90E008958FEF9FEFB5
:1002E0000895FC01918D828D981731F0828DE80F71
:1002F000F11D858D90E008958FEF9FEF0895FC012B
:10030000918D228D892F90E0805C9F4F821B9109F7
:100310008F739927089581EC94E00E947F0121E07A
:10032000892B09F420E0822F089580E090E0892B4A
:1003300029F00E948B0181110C9400000895FC01AA
:10034000A48DA80FB92FB11DA35ABF4F2C91848D36
:1003500090E001968F739927848FA689B7892C9393
:10036000A089B1898C91837080648C93938D848DE6
:10037000981306C00288F389E02D80818F7D8083E9
:100380000895EF92FF920F931F93CF93DF93EC01A9
:1003900081E0888F9B8D8C8D98131AC0E889F9892C
:1003A000808185FF15C09FB7F894EE89FF8960832F
:1003B000E889F98980818370806480839FBF81E0B0
:1003C00090E0DF91CF911F910F91FF90EF900895F2
:1003D000F62E0B8D10E00F5F1F4F0F731127E02ECD
:1003E0008C8D8E110CC00FB607FCFACFE889F98905
:1003F000808185FFF5CFCE010E949F01F1CFEB8D6B
:10040000EC0FFD2FF11DE35AFF4FF0829FB7F894D8
:100410000B8FEA89FB8980818062CFCF60E281EC1B
:1004200094E00C94C101CF93DF93EC01888D882375
:10043000B9F0AA89BB89E889F9898C9185FD03C047
:10044000808186FD0DC00FB607FCF7CF8C9185FF2C
:10045000F2CF808185FFEDCFCE010E949F01E9CFD1
:10046000DF91CF910895833081F028F4813099F0A5
:100470008230A9F008958730A9F08830C9F084301F
:10048000B1F4809180008F7D03C0809180008F77D0
:1004900080938000089584B58F7784BD089584B5D6
:1004A0008F7DFBCF8091B0008F778093B00008954F
:1004B0008091B0008F7DF9CFCF93DF93282F30E06C
:1004C000F901EC55FE4F8491F901E854FE4FD491A7
:1004D000F901EA52FE4FC491CC23A1F081110E9490
:1004E0003302EC2FF0E0EE0FFF1FE656FE4FA59112
:1004F000B491EC91ED2381E090E009F480E0DF918C
:10050000CF91089580E090E0FACF1F93CF93DF93CF
:10051000282F30E0F901EC55FE4F8491F901E854A1
:10052000FE4FD491F901EA52FE4FC491CC23A9F0B9
:10053000162F81110E943302EC2FF0E0EE0FFF1F07
:10054000E453FE4FA591B4918FB7F894EC9111113B
:1005500008C0D095DE23DC938FBFDF91CF911F9130
:100560000895DE2BF8CFCF93DF9390E0FC01E854A1
:10057000FE4F24918A529E4FFC0184918823C9F03A
:1005800090E0880F991FFC01E057FE4FA591B491B0
:10059000FC01E453FE4FC591D49161110DC09FB78A
:1005A000F8948C91209582238C938881282328832A
:1005B0009FBFDF91CF910895623051F49FB7F894B7
:1005C0003C91822F809583238C93E8812E2BEFCF53
:1005D0008FB7F894EC912E2B2C938FBFEACF3FB7B7
:1005E000F8948091950490919604A0919704B0910D
:1005F000980426B5A89B05C02F3F19F00196A11DB0
:10060000B11D3FBFBA2FA92F982F8827BC01CD015C
:10061000620F711D811D911D42E0660F771F881FBB
:10062000991F4A95D1F708958F929F92AF92BF92EA
:10063000CF92DF92EF92FF924B015C010E94EF029A
:100640006B017C010E94EF026C197D098E099F09E4
:10065000683E734081059105A8F321E0821A910854
:10066000A108B10888EEC80E83E0D81EE11CF11C79
:1006700081149104A104B10429F7FF90EF90DF9059
:10068000CF90BF90AF909F908F9008952091460497
:10069000260F3327331F21323105ECF420916A04F1
:1006A000FC0190E080E0243069F082E00895A091A0
:1006B00046042191AC014A5D5B4FA40FB52FB11DDB
:1006C0002C930196861798F380914604680F6093E7
:1006D000460480E0089581E0089508958FEF9FEF2C
:1006E00008958FEF9FEF089580911F0490E09195FA
:1006F000819591090895CF93DF93CB01EA01642F8F
:100700000E944603CE01DF91CF910895CF93DF93EE
:100710001F92CDB7DEB7698361E0CE0101960E94DA
:10072000460381E090E00F90DF91CF910895089506
:1007300090E080E00895CF93DF93EC0160E08E813C
:100740000E94850261E08E810E94850260E08E81B8
:100750000E9485028BE891E00197F1F7DF91CF913C
:100760000895CF92DF92EF92FF920F931F93CF9352
:10077000DF936C017C0187E0E80EF11CD0E0C0E063
:10078000062F10E0B8010C2E02C0759567950A94EB
:10079000E2F76170F70181917F010E948502219645
:1007A000C430D10579F7C601DF91CF911F910F9128
:1007B000FF90EF90DF90CF900C949B03CF92DF924D
:1007C000EF92FF920F931F93CF93DF93EC01F62EDE
:1007D000642F8C810E9485028D818F3F19F060E02B
:1007E0000E9485020F2D10E08F8584FF25C06E01C9
:1007F00087E0C80ED11CF12CE12CB8010E2C02C0F0
:10080000759567950A94E2F76170F60181916F0121
:100810000E948502FFEFEF1AFF0A88E0E816F10454
:1008200061F7CE01DF91CF911F910F91FF90EF9073
:10083000DF90CF900C949B03B80184E07595679589
:100840008A95E1F7CE010E94B1036F2DCE01DF91B1
:10085000CF911F910F91FF90EF90DF90CF900C946C
:10086000B10341E00E94DE0381E090E0089540E0A2
:100870000C94DE03443008F043E0FC012389421766
:1008800010F04FEF420FFC01E40FF11D2489620FBD
:1008900060680C94370461E00E9437048BE39FE1A9
:1008A0000197F1F70895CF93DF93823029F4909167
:1008B00075059860909375058093790510927A0577
:1008C00080E480937B0580E180937C0580E58093C4
:1008D0007D0561E080916A050E94B30280916B05FD
:1008E0008F3F19F061E00E94B30261E080916C05D6
:1008F0000E94B302C6E6D5E09E012656354080919F
:10090000750584FD0BC084E090E021962817390717
:1009100044F461E08E810E94B302EECF88E090E063
:10092000F4CF8BE39DE00197F1F760E080916A05D9
:100930000E94850260E080916C050E948502809192
:100940006B058F3F19F060E00E948502609175058C
:1009500064FD3CC063E086E695E00E94B103CBE411
:10096000D6E4CE010197F1F763E086E695E00E94B8
:10097000B1032197F1F763E086E695E00E94B103A9
:1009800083E592E00197F1F762E086E695E00E9448
:10099000B10360917505606286E695E00E943704B8
:1009A00084E0809376056CE086E695E00E9437044B
:1009B00086E695E00E944B0482E08093770566E02E
:1009C00086E695E0DF91CF910C943704606286E66D
:1009D00095E00E9437048BE496E40197F1F760916B
:1009E0007505606286E695E00E94370483E592E033
:1009F0000197F1F760917505606286E695E00E94C7
:100A00003704C7CFFB0101900020E9F73197AF0110
:100A1000461B570BDC01ED91FC910280F381E02D28
:100A2000099465E471E081EC94E00C940205CF93A5
:100A3000DF93FC01448155816081718181EC94E0F8
:100A40000E942101EC010E9411058C0F9D1FDF9176
:100A5000CF9108958F929F92AF92BF92EF92FF92A3
:100A60000F931F93CF93DF93CDB7DEB7A1970FB648
:100A7000F894DEBF0FBECDBF7C01FA01CB0119A2F5
:100A8000223008F42AE08E010F5D1F4F822E912C38
:100A9000B12CA12CBF01A50194010E94571BF901A3
:100AA000CA016A300CF5605DD8016E938D01232B6D
:100AB000242B252B79F790E080E0109721F0BD01E1
:100AC000C7010E940205A1960FB6F894DEBF0FBEC3
:100AD000CDBFDF91CF911F910F91FF90EF90BF900D
:100AE000AF909F908F900895695CDECFCF92DF9298
:100AF000EF92FF920F931F93CF93DF936B01770FCA
:100B0000EE08FF08F7FE1FC0EC01E881F9810190B3
:100B1000F081E02D6DE209958C0144275527BA013B
:100B20004C195D096E097F092AE0CE010E942A0551
:100B3000800F911FDF91CF911F910F91FF90EF9048
:100B4000DF90CF9008952AE0B701A601DF91CF9101
:100B50001F910F91FF90EF90DF90CF900C942A059A
:100B6000CF93DF93BC0181EC94E00E940205EC017D
:100B70000E9411058C0F9D1FDF91CF9108950F9357
:100B80001F93CF93DF93EC0188819981009759F0EF
:100B90002A813B812617370730F081E0DF91CF9122
:100BA0001F910F9108958B016F5F7F4F0E94D91E97
:100BB000009759F0998388831B830A832C813D8198
:100BC000232B59F7FC011082E8CF80E0E7CFCF93C9
:100BD000DF93EC0188819981009711F00E94501EEB
:100BE000198218821D821C821B821A82DF91CF918A
:100BF0000895EF92FF920F931F93CF93DF93EC0131
:100C00007B01198218821B821A821D821C82FB01C1
:100C100001900020E9F731978F01061B170BB801EF
:100C20000E94BF05811109C0CE01DF91CF911F91B4
:100C30000F91FF90EF900C94E7051D830C83B70193
:100C400088819981DF91CF911F910F91FF90EF9053
:100C50000C949F1FEF92FF920F931F93CF93DF93FC
:100C60008C017B01EB0109900020E9F72197C61B5D
:100C7000D70BBE010E94BF05811109C0C801DF91D9
:100C8000CF911F910F91FF90EF900C94E705F80121
:100C9000D583C483B70180819181DF91CF911F916A
:100CA0000F91FF90EF900C949F1F0F931F93CF9382
:100CB000DF93CDB7DEB729970FB6F894DEBF0FBE2E
:100CC000CDBF8C01862FF80111821082138212820F
:100CD0001582148242E0BE016F5F7F4F90E00E9458
:100CE0007117BE016F5F7F4FC8010E942A062996C7
:100CF0000FB6F894DEBF0FBECDBFDF91CF911F912D
:100D00000F910895EF92FF920F931F93CF93DF936C
:100D1000EC01FB01E080F180E114F10411F10481A8
:100D2000158101151105A9F08C819D81080F191FEE
:100D3000B801CE010E94BF05882399F0288139812E
:100D40008C819D81B701820F931F0E949F1F1D837D
:100D50000C83CE01DF91CF911F910F91FF90EF9007
:100D60000895CE010E94E705F4CFFC0180819181B6
:100D7000009711F00C94501E08952F923F924F92BD
:100D80005F926F927F928F929F92AF92BF92CF921B
:100D9000DF92EF92FF920F931F93CF93DF93CDB724
:100DA000DEB72C970FB6F894DEBF0FBECDBFF89418
:100DB00015BC8EE6882E912CF401108287E085BB4D
:100DC0009CE7A92EB12C90E2F50190832BE7C22E6F
:100DD000D12C96E0F60190833AE7E32EF12C94EEC5
:100DE000F70190830EE710E091E0F801908340E86E
:100DF000642E712C22E8F301208351E8452E512CFA
:100E000029E1F201208362E8262E312CF1011082C3
:100E1000E9E8F0E0108221E8E8E8F0E02083909330
:100E2000870023E0E6E8F0E02083E5E8F0E01082C8
:100E3000E4E8F0E0108286BBEFE6F0E0908393E216
:100E400094BD9FE095BD87BD28BD16BC65B5CE019C
:100E500001960E94550668E471E0CE0107960E9453
:100E6000F905BE016F5F7F4FCE0107960E94820693
:100E70000E941705CE0107960E94B506CE01019685
:100E80000E94B506F4016081CE0101960E945506CC
:100E90006BE571E0CE0107960E94F905BE016F5F18
:100EA0007F4FCE0107960E9482060E941705CE0151
:100EB00007960E94B506CE0101960E94B50665B35D
:100EC000CE0101960E9455066EE671E0CE010796AE
:100ED0000E94F905BE016F5F7F4FCE0107960E9409
:100EE00082060E941705CE0107960E94B506CE0124
:100EF00001960E94B506F5016081CE0101960E941F
:100F0000550660E871E0CE0107960E94F905BE0122
:100F10006F5F7F4FCE0107960E9482060E941705E1
:100F2000CE0107960E94B506CE0101960E94B50635
:100F3000F6016081CE0101960E94550662E971E0DA
:100F4000CE0107960E94F905BE016F5F7F4FCE016B
:100F500007960E9482060E941705CE0107960E94FE
:100F6000B506CE0101960E94B506F7016081CE015B
:100F700001960E94550665EA71E0CE0107960E942F
:100F8000F905BE016F5F7F4FCE0107960E94820672
:100F90000E941705CE0107960E94B506CE01019664
:100FA0000E94B506F8016081CE0101960E945506A7
:100FB00068EB71E0CE0107960E94F905BE016F5FF4
:100FC0007F4FCE0107960E9482060E941705CE0130
:100FD00007960E94B506CE0101960E94B506F30160
:100FE0006081CE0101960E9455066AEC71E0CE0147
:100FF00007960E94F905BE016F5F7F4FCE010796ED
:101000000E9482060E941705CE0107960E94B5062F
:10101000CE0101960E94B506F2016081CE010196D3
:101020000E9455066DED71E0CE0107960E94F9050C
:10103000BE016F5F7F4FCE0107960E9482060E941D
:101040001705CE0107960E94B506CE0101960E94B3
:10105000B506F1016081CE0101960E94550660EF50
:1010600071E0CE0107960E94F905BE016F5F7F4FC8
:10107000CE0107960E9482060E941705CE010796B0
:101080000E94B506CE0101960E94B506E9E8F0E09F
:101090006081CE0101960E94550663E072E0CE01A8
:1010A00007960E94F905BE016F5F7F4FCE0107963C
:1010B0000E9482060E941705CE0107960E94B5067F
:1010C000CE0101960E94B506E8E8F0E06081CE010D
:1010D00001960E94550666E172E0CE0107960E94D5
:1010E000F905BE016F5F7F4FCE0107960E94820611
:1010F0000E941705CE0107960E94B506CE01019603
:101100000E94B506E6E8F0E06081CE0101960E94FB
:10111000550669E272E0CE0107960E94F905BE010C
:101120006F5F7F4FCE0107960E9482060E941705CF
:10113000CE0107960E94B506CE0101960E94B50623
:10114000E5E8F0E06081CE0101960E9455066BE370
:1011500072E0CE0107960E94F905BE016F5F7F4FD6
:10116000CE0107960E9482060E941705CE010796BF
:101170000E94B506CE0101960E94B506E4E8F0E0B3
:101180006081CE0101960E9455066EE472E0CE01A8
:1011900007960E94F905BE016F5F7F4FCE0107964B
:1011A0000E9482060E941705CE0107960E94B5068E
:1011B000CE0101960E94B50666B3CE0101960E944B
:1011C000550661E672E0CE0107960E94F905BE0160
:1011D0006F5F7F4FCE0107960E9482060E9417051F
:1011E000CE0107960E94B506CE0101960E94B50673
:1011F000EFE6F0E06081CE0101960E94550663E7BC
:1012000072E0CE0107960E94F905BE016F5F7F4F25
:10121000CE0107960E9482060E941705CE0107960E
:101220000E94B506CE0101960E94B50664B5CE01B6
:1012300001960E94550666E872E0CE0107960E946C
:10124000F905BE016F5F7F4FCE0107960E948206AF
:101250000E941705CE0107960E94B506CE010196A1
:101260000E94B50665B5CE0101960E94550668E458
:1012700071E0CE0107960E94F905BE016F5F7F4FB6
:10128000CE0107960E9482060E941705CE0107969E
:101290000E94B506CE0101960E94B50667B5CE0143
:1012A00001960E94550669E972E0CE0107960E94F8
:1012B000F905BE016F5F7F4FCE0107960E9482063F
:1012C0000E941705CE0107960E94B506CE01019631
:1012D0000E94B50668B5CE0101960E9455066BEADC
:1012E00072E0CE0107960E94F905BE016F5F7F4F45
:1012F000CE0107960E9482060E941705CE0107962E
:101300000E94B506CE0101960E94B50666B5CE01D3
:1013100001960E9455066DEB72E0CE0107960E9481
:10132000F905BE016F5F7F4FCE0107960E948206CE
:101330000E941705CE0107960E94B506CE010196C0
:101340000E94B5060E9411058FEC92E00E94B00544
:101350000E94110578942C960FB6F894DEBF0FBE4C
:10136000CDBFDF91CF911F910F91FF90EF90DF9054
:10137000CF90BF90AF909F908F907F906F905F9035
:101380004F903F902F900895EF92FF920F931F93ED
:10139000CF93DF93CDB7DEB7A1970FB6F894DEBF3A
:1013A0000FBECDBF7C01CB01BA01F70111821082C3
:1013B000138212821582148242E0420F8E010F5F67
:1013C0001F4F0E944817009789F0BC01C7010E9477
:1013D0002A06A1960FB6F894DEBF0FBECDBFDF91EF
:1013E000CF911F910F91FF90EF900895C7010E9438
:1013F000E705EFCF1F93CF93DF9385ED8093BC007C
:101400008091220490912304A0912404B09125049A
:101410000796A11DB11D23E0B695A79597958795D1
:101420002A95D1F72091BC0024FD03C010926A04D4
:1014300052C0409122045091230460912404709181
:101440002504452B462B472B69F30097A105B105D1
:1014500041F02AE22A95F1F700C00197A109B109EC
:10146000E1CF80912104C1E0C0932004882399F149
:10147000D091B8001091BA008091BC008A7B809313
:10148000BC0060E082E10E94850260E083E10E948E
:10149000850210926A04C0936C0410926B0461E0A0
:1014A00082E10E94850261E083E10E9485028091D1
:1014B000B9008E7F8093B9008091B9008D7F8093B1
:1014C000B90088E48093B80085E48093BC00109351
:1014D000BA00D093B800DF91CF911F9108951F9269
:1014E0000F920FB60F9211242F933F934F935F9358
:1014F0006F937F938F939F93AF93BF93EF93FF93DC
:101500008091BD049091BE04A091BF04B091C0042D
:10151000892B8A2B8B2BD1F19091BC04E091BA04DA
:10152000F091BB048081892780838091BD049091D4
:10153000BE04A091BF04B091C004181619061A0683
:101540001B069CF48091BD049091BE04A091BF0441
:10155000B091C0040197A109B1098093BD04909393
:10156000BE04A093BF04B093C004FF91EF91BF915C
:10157000AF919F918F917F916F915F914F913F912B
:101580002F910F900FBE0F901F9018958091000122
:10159000EAEEF1E0E4919FEF90930001E13051F029
:1015A00030F0E23069F060E00E948502DECF1092F8
:1015B0006E00F9CF90916F009D7F90936F00F3CFF5
:1015C000909170009D7F9093700091E09093B00097
:1015D0009091B100987F94609093B1001092B30005
:1015E000E2CF1F920F920FB60F9211242F933F93C9
:1015F0004F935F936F937F938F939F93AF93BF931B
:10160000EF93FF9381EC94E00E949F01FF91EF9193
:10161000BF91AF919F918F917F916F915F914F910A
:101620003F912F910F900FBE0F901F9018951F9212
:101630000F920FB60F9211242F938F939F93EF93D6
:10164000FF93E091D104F091D2048081E091D7041E
:10165000F091D80482FD1BC090818091DA048F5FE5
:101660008F732091DB04821741F0E091DA04F0E0FF
:10167000EF53FB4F958F8093DA04FF91EF919F9189
:101680008F912F910F900FBE0F901F901895808112
:10169000F4CF1F920F920FB60F9211242F933F9306
:1016A0008F939F93AF93BF938091910490919204F5
:1016B000A0919304B09194043091900423E0230FFF
:1016C0002D3758F50196A11DB11D209390048093EC
:1016D000910490939204A0939304B0939404809106
:1016E000950490919604A0919704B0919804019666
:1016F000A11DB11D8093950490939604A093970427
:10170000B0939804BF91AF919F918F913F912F918A
:101710000F900FBE0F901F90189526E8230F02968A
:10172000A11DB11DD2CF1F920F920FB60F9211249F
:101730002F933F934F935F936F937F938F939F93D9
:10174000AF93BF93EF93FF938091B900887F80366A
:1017500009F44AC0F0F5883209F4A5C018F58031C3
:1017600009F499C0B8F4882309F4F5C0883009F465
:1017700092C0FF91EF91BF91AF919F918F917F9117
:101780006F915F914F913F912F910F900FBE0F90EE
:101790001F901895883109F486C0803251F78093E4
:1017A000690414C0803409F49BC040F48033B9F359
:1017B0008833F9F68093690485ECAEC0803509F46E
:1017C00083C0883509F494C0883499F60E94FA09D8
:1017D000D0CF883909F48AC038F5883729F050F419
:1017E000883611F0803729F683E080936A041092DE
:1017F000680455C0883809F479C0803919F08038F8
:1018000009F0B7CF80916804803208F06FC0E09192
:10181000680481E08E0F809368048091BB00F0E043
:10182000E85BFB4F80833BC0803B39F0D0F4803ACB
:1018300009F477C0883A09F09CCF84E080936A0469
:101840001092470410924604F0E0E0E00995809180
:10185000460481110FC081E0809346041092260453
:1018600009C0803C09F4A8CF883C09F4A5CF883B87
:1018700009F07FCFE091470481E08E0F8093470409
:10188000F0E0EA5DFB4F80818093BB0090914704BC
:101890008091460429C080918F048093BB0085EC21
:1018A0008093BC0066CF90918E0480918D04981730
:1018B00058F5E0918E0481E08E0F80938E04F0E065
:1018C000E359FB4F8081E9CFE0918E0481E08E0FD8
:1018D00080938E048091BB00F0E0E359FB4F80833E
:1018E00090918E0480918D049817C8F285E8D8CF26
:1018F000E0918E0481E08E0F80938E048091BB0076
:10190000F0E0E359FB4F808380916C0481115ECF3E
:1019100081E080936B0484EA8093BC0010926A0497
:1019200028CF85EC8093BC0010926A0480916804F3
:10193000803230F4E0916804F0E0E85BFB4F108205
:101940006091680470E088E494E0F0E0E0E00995DC
:10195000109268040ECF1092690438CF1F920F9234
:101960000FB60F9211242F933F934F936F937F9352
:101970008F939F93AF93BF93EF93FF938091B504A1
:101980009091B604A091B704B091B8040196A11D3E
:10199000B11D8093B5049093B604A093B704B0939F
:1019A000B80446B580917900682F70E020911E043C
:1019B00030E02F5F3F4F277033274217130649F05F
:1019C0008091A3049091A40401969093A404809321
:1019D000A30440931E04E42FE370F0E0EE0FFF1F1A
:1019E000EA5EFB4F808191814430D8F4860F971FC7
:1019F00089392AE3920794F491838083FF91EF91D0
:101A0000BF91AF919F918F917F916F914F913F9136
:101A10002F910F900FBE0F901F90189588E99AE3B1
:101A2000EBCF861B970B8836A5EC9A0794F0918331
:101A30008083473019F78091140490911504019622
:101A40008115B4E09B0741F0909315048093140432
:101A5000D5CF88E695ECEBCF1092150410921404C4
:101A60008091B90481110CC088E0E6E1F4E0ADEAB0
:101A7000B4E001900D928A95E1F781E08093B9047A
:101A8000E6E1F4E088E0DF011D928A95E9F7B6CF40
:101A9000EF92FF920F931F93CF93DF938C017A0104
:101AA00088E0689FB00111246064C8010E94370477
:101AB000E701A8E0EA0EF11C6991D801ED91FC91D3
:101AC0000190F081E02DC8010995CE15DF05A1F741
:101AD000DF91CF911F910F91FF90EF9008950F9399
:101AE0001F93CF93DF93E1ECF4E01382128288EE30
:101AF00093E0A0E0B0E084839583A683B7838BE274
:101B000091E09183808385EC90E09587848784ECD5
:101B100090E09787868780EC90E0918B808B81ECBA
:101B200090E0938B828B82EC90E0958B848B86EC9B
:101B300090E0978B868B118E128E138E148EEEE7AB
:101B4000F5E082E593E0918380831186108688E03A
:101B500090E0938382838FE090E095838483C6E650
:101B6000D5E01B821A828DE391E09983888386E019
:101B70008C838FEF8D8387E08E838AE08F838BE069
:101B800088878CE089878DE08A871B861C861D8666
:101B90001E861F8681E00E9453040EE515E0F801C1
:101BA000D183C08380E18283138281E0848349E111
:101BB00051E061E0CE010E94480D41E151E062E058
:101BC000F801808191810E94480D49E051E063E075
:101BD000F801808191810E94480D41E051E064E06C
:101BE000F801808191810E94480DF80180819181E6
:101BF0000E944B04F801168215821782DF91CF9163
:101C00001F910F910895CF93DF93CDB7DEB7E7977C
:101C10000FB6F894DEBF0FBECDBF789484B5826056
:101C200084BD84B5816084BD85B5826085BD85B580
:101C3000816085BD80916E00816080936E001092FE
:101C40008100809181008260809381008091810079
:101C5000816080938100809180008160809380000A
:101C60008091B10084608093B1008091B000816068
:101C70008093B00080917A00846080937A00809194
:101C80007A00826080937A0080917A0081608093EC
:101C90007A0080917A00806880937A001092C10067
:101CA00061E0809180050E94B30261E0809180052F
:101CB0000E94850260E0809182050E94B302E0915B
:101CC000D104F091D20482E08083E091CD04F091C0
:101CD000CE041082E091CF04F091D00487E6808397
:101CE0001092D904E091D504F091D60486E0808367
:101CF000E091D304F091D404808180618083E091ED
:101D0000D304F091D404808188608083E091D3046F
:101D1000F091D404808180688083E091D304F091B5
:101D2000D40480818F7D808382E00E94530462E02E
:101D300082E00E94B30260E089E00E94850261E0D7
:101D400089E00E94B30260E085E00E94850261E0C4
:101D500085E00E94B30240E062E086E695E00E94E2
:101D60003A046BE173E086E695E00E94020568EBB9
:101D70007BE080E090E00E94140386E695E00E94FC
:101D80004B040E94BD068091B9048823E1F31092B0
:101D9000A4041092A3041092B904209182053091FA
:101DA0008305922F2E30310508F0CFC0822F0E947C
:101DB0005C0290938505809384050197D1F480910E
:101DC00086059091870501969093870580938605F7
:101DD00068EE73E080E090E00E9414038091860535
:101DE0009091870504972CF060E0809180050E9417
:101DF000850280918605909187051816190654F47E
:101E00008091840590918505892B21F41092870596
:101E1000109286058091B9048823E1F32091B504DE
:101E20003091B6044091B7045091B8042CAB3DAB4F
:101E30004EAB5FAB82E00E945C02892B09F0D4C0FC
:101E40008091AD049091AE049093A6048093A50474
:101E50008091AF049091B0049093A8048093A7045C
:101E60008091B1049091B2049093AA048093A90444
:101E70008091B3049091B4049093AC048093AB042C
:101E80001092B90469E273E081EC94E00E940205CB
:101E900040E060E086E695E00E943A0464E373E087
:101EA00086E695E00E94020505EA14E08DEAE82E38
:101EB00084E0F82E0E940E02D8016D917D918D0173
:101EC00081EC94E00E94760541E060E086E695E0D2
:101ED0000E943A0441E060E286E695E00E94DE035B
:101EE0006091AD047091AE0486E695E00E9476059F
:101EF0006AED73E086E695E00E940205E016F106C1
:101F0000C9F60E9411058091B5049091B604A09184
:101F1000B704B091B8042CA93DA94EA95FA9821BB2
:101F2000930BA40BB50B80349F41A105B10558F369
:101F300080E090E0892B09F430CF0E948B01882348
:101F400009F42BCF0E94000028CF2E3010F092EF22
:101F5000920F9770906490937C0080917A008064D7
:101F600080937A0080917A0086FDFCCF8091780082
:101F700090917900909385058093840520917E054A
:101F800030917F0582179307D4F080918605909158
:101F900087050196909387058093860568EE73E028
:101FA00080E090E00E94140380918605909187055F
:101FB00004972CF060E0809180050E94850280915A
:101FC000860590918705181619060CF023CF2091ED
:101FD00084053091850580917E0590917F052817B5
:101FE00039070CF413CF16CFA5EAB4E090E080E0F7
:101FF000FC01EE0FFF1FE355FB4F208131814D9116
:102000005D91241B350B318320830196843091052B
:1020100079F70091AD041091AE046091AF04709116
:10202000B0048091B3049091B404681B790B072E1F
:10203000000C880B990B0E94D91923EF34E045E37B
:102040005FE30E94381A6B017C01B801110F880B05
:10205000990B0E94D9199B01AC01C701B6010E94DE
:10206000891B20E030E048E453E40E94671C2B0108
:102070003C010091AF041091B0046091AD047091E7
:10208000AE048091B1049091B204680F791F072EBD
:10209000000C880B990B0E94D91923EF34E045E31B
:1020A0005FE30E94381A6B017C01B801110F880BA5
:1020B000990B0E94D9199B01AC01C701B6010E947E
:1020C000891B20E030E048E453E40E94671C4B0188
:1020D0005C010091B1041091B2046091AF04709161
:1020E000B0048091B3049091B404680F791F072E57
:1020F000000C880B990B0E94D91923EF34E045E3BB
:102100005FE30E94381A6B017C01B801110F880B44
:10211000990B0E94D9199B01AC01C701B6010E941D
:10212000891B20E030E048E453E40E94671C6CA364
:102130007DA38EA39FA30091B3041091B40460917A
:10214000B1047091B2048091AD049091AE04681B0B
:10215000790B072E000C880B990B0E94D91923EFDD
:1021600034E045E35FE30E94381A6B017C01B8015B
:10217000110F880B990B0E94D9199B01AC01C70163
:10218000B6010E94891B20E030E048E453E40E943D
:10219000671C68A779A78AA79BA71092B904A30117
:1021A0009201C301B2010E94381A6B017C012CA17B
:1021B0003DA14EA15FA1CA01B9010E94381A9B013D
:1021C000AC01C701B6010E94891B0E94491D6CA782
:1021D0007DA78EA79FA7A5019401C501B4010E9408
:1021E000381A6B017C0128A539A54AA55BA5CA014F
:1021F000B9010E94381A9B01AC01C701B6010E94C7
:10220000891B0E94491D68AB79AB8AAB9BAB9B01D4
:10221000AC016CA57DA58EA59FA50E94891B20E021
:1022200030E040E05FE30E94381A698F7A8F8B8F2D
:102230009C8F2CA13DA14EA15FA1C301B2010E94C0
:10224000081C21EE3EE245E652E40E94381A20E0E6
:1022500030E044E352E40E94891B6D8F79A38AA386
:102260009BA328A539A54AA55BA5C501B4010E9479
:10227000081C21EE3EE245E652E40E94381A162F71
:10228000072F382E292E78016101262F372F482F4E
:10229000592F6D8D79A18AA19BA10E94361D181618
:1022A00044F01D8D09A13AA02BA0FD8EE9A2DAA26F
:1022B000CBA22D8D39A14AA15BA1612F702F832D57
:1022C000922D0E94891B20E030E040E05FE30E94F5
:1022D000381A24E13BE341EB50E40E94881B6B0178
:1022E0007C01212F302F432D522D6D8D79A18AA194
:1022F0009BA10E94881B20E030E044E353E40E944D
:10230000361D18169CF420E030E0A901C701B60183
:102310000E94D21920E030E044E353E487FF85C2F5
:10232000C701B6010E94891B6B017C016091A30467
:102330007091A40490E080E00E94D719AB01BC0129
:1023400022E0CE0101960E94C40965E473E0CE014B
:1023500043960E94F905BE016F5F7F4FCE01439601
:102360000E9482060E941705CE0143960E94B50680
:10237000CE0101960E94B5060E940E0220E030E0D8
:10238000A901C301B2010E94361D87FF0E940E02FF
:1023900022E0B301A201CE0101960E94C4096EE4BD
:1023A00073E0CE0143960E94F905BE016F5F7F4F37
:1023B000CE0143960E9482060E941705CE014396E5
:1023C0000E94B506CE0101960E94B5060E940E023B
:1023D00020E030E0A901C501B4010E94361D87FF4D
:1023E0000E940E0222E0B501A401CE0101960E94D6
:1023F000C40960E673E0CE0143960E94F905BE0170
:102400006F5F7F4FCE0143960E9482060E941705A0
:10241000CE0143960E94B506CE0101960E94B506F4
:102420000E940E0220E030E0A9016CA17DA18EA1E6
:102430009FA10E94361D87FF0E940E0222E04CA140
:102440005DA16EA17FA1CE0101960E94C40962E741
:1024500073E0CE0143960E94F905BE016F5F7F4F86
:10246000CE0143960E9482060E941705CE01439634
:102470000E94B506CE0101960E94B5060E940E028A
:1024800020E030E0A90168A579A58AA59BA50E9456
:10249000361D87FF0E940E0222E048A559A56AA5B5
:1024A0007BA5CE0101960E94C40963E873E0CE01CA
:1024B00043960E94F905BE016F5F7F4FCE014396A0
:1024C0000E9482060E941705CE0143960E94B5061F
:1024D000CE0101960E94B5066EED73E081EC94E0AA
:1024E0000E94020522E04CA55DA56EA57FA5CE0148
:1024F00001960E94C40965E973E0CE0143960E94EB
:10250000F905BE016F5F7F4FCE0143960E948206A0
:102510000E941705CE0143960E94B506CE01019692
:102520000E94B5060E940E0222E048A959A96AA994
:102530007BA9CE0101960E94C4096DE973E0CE012A
:1025400043960E94F905BE016F5F7F4FCE0143960F
:102550000E9482060E941705CE0143960E94B5068E
:10256000CE0101960E94B5060E940E0220E030E0E6
:10257000A901612F702F832D922D0E94361D87FF98
:102580000E940E0222E0412F502F632D722DCE01AA
:1025900001960E94C40965EA73E0CE0143960E9449
:1025A000F905BE016F5F7F4FCE0143960E94820600
:1025B0000E941705CE0143960E94B506CE010196F2
:1025C0000E94B5060E940E0220E030E0A9016D8D48
:1025D00079A18AA19BA10E94361D87FF0E940E024D
:1025E00022E04D8D59A16AA17BA1CE0101960E94E6
:1025F000C4096FEA73E0CE0143960E94F905BE015B
:102600006F5F7F4FCE0143960E9482060E9417059E
:10261000CE0143960E94B506CE0101960E94B506F2
:1026200020E030E0A901698D7A8D8B8D9C8D0E9410
:10263000361D87FF0E940E0221E0498D5A8D6B8D59
:102640007C8DCE0101960E94C40969EB73E0CE0136
:1026500043960E94F905BE016F5F7F4FCE014396FE
:102660000E9482060E941705CE0143960E94B5067D
:10267000CE0101960E94B5060E940E0220E030E0D5
:10268000A901C701B6010E94361D87FF0E940E02F4
:102690001C8A1B8A1E8A1D8A188E1F8AC701B601D2
:1026A0000E94D91CCB014AE0BE016F5F7F4F0E94A0
:1026B0006617BE016F5F7F4FCE0143960E942A06C8
:1026C00067EC73E0CE0101960E94F905BE016D5ED4
:1026D0007F4FCE0101960E9482060E941705CE010F
:1026E00001960E94B506CE0143960E94B5060E944F
:1026F00011058FEC92E00E94B0050E94110540E0A8
:1027000060E086E695E00E943A0468ED73E086E6B4
:1027100095E00E940205298D3A8D4B8D5C8DCA0192
:10272000B9010E948D1D63EE73E081111DC0898C7B
:102730009A8CAB8CBC8CE894B7F82FEF3FEF4FE747
:102740005FE7C501B4010E948D1D811173C02FEF99
:102750003FEF4FE75FE7C501B4010E94D219181699
:102760000CF068C067EE73E086E695E00E94020513
:1027700041E060E086E695E00E943A04698D7A8D3A
:102780008B8D9C8D0E94D91C2091600530E0DB016F
:102790000E94A71D2B013C0128EC30E040E050E0F6
:1027A0000E94F61AA22EB22EA5E0B0E0A30192017B
:1027B0000E94151B28EC30E040E050E00E94F61A21
:1027C000CA01B90125E030E040E050E00E94F61A6D
:1027D000962E762E062F10E0B5E0AB9E000D111D53
:1027E000112480916305909164050817190709F475
:1027F000D5C0409162056091610580915E05909120
:102800005F050E943A04812C8B1408F09DC08091D2
:102810005E0590915F05DC01ED91FC910190F081E6
:10282000E02D6FEF09958394EFCFC701B6010E94A9
:10283000881B7ACD2FEF3FEF4FE75FE4698D7A8DEC
:102840008B8D9C8D0E94361D18161CF46BEE73E068
:102850008BCF2FEF3FEF4FE75FEC698D7A8D8B8D3C
:102860009C8D0E94D21987FDF1CF20E030E0A901B4
:10287000698D7A8D8B8D9C8D0E94D21987FF5FC0E8
:1028800041E06DE286E695E00E94DE03698D7A8D77
:102890008B8D9C8D90582AE037ED43EA5BE30E94D4
:1028A000891B2B013C010E94E01C4B015C010E9432
:1028B000D7199B01AC01C301B2010E94881B2B01F7
:1028C0003C012AE0B501A40186E695E00E942A05B4
:1028D00041E06EE286E695E00E94DE0320E030E013
:1028E00040E251E4C301B2010E94381A2B013C01BD
:1028F0000E94E01C4B01B12CA12C2AE0B501A401DF
:1029000086E695E00E942A05C501B4010E94D71908
:102910009B01AC01C301B2010E94881B20E030E0A2
:1029200040E251E40E94381A0E94E01CAB0170E0C2
:1029300060E02AE086E695E00E942A0519CF698DBD
:102940007A8D8B8D9C8DA7CF772079F080915E0555
:1029500090915F05DC01ED91FC910190F081E02DFB
:10296000692D0995BB24B394BA0CAB2C80916505F5
:10297000A81670F480915E0590915F05DC01ED91E1
:10298000FC910190F081E02D60E20995A394EECFD7
:10299000B0926505109364050093630520E030E074
:1029A00040EA50E4698D7A8D8B8D9C8D0E94361D96
:1029B00087FDA9CA20E030E040EA51ECC701B6012A
:1029C0000E94D21987FFF8C08FEE93E00E94B005F5
:1029D00040E060E086E695E00E943A046BEF73E029
:1029E00086E695E00E9402050E9411058FEC92E0B8
:1029F0000E94B0050E941105698D7A8D8B8D9C8D8A
:102A00000E94D91C9B01AC012A503109410951098E
:102A1000A8E7B5E00E94151B2EEB30E040E050E047
:102A20000E94F61ADA01C9018C599F4FAF4FBF4F70
:102A30008D8F9E8FAF8FB8A380910001833009F0F6
:102A4000C8C0EAEEF1E0149117FDACC161E083E08B
:102A50000E94B302112319F0123009F0C1C18D8C0C
:102A60009E8CAF8CB8A0AA24BB2460E072E18AE7F8
:102A700090E0A50194010E94F61A29013A017A0119
:102A80006901F1E0CF1AD108E108F1082FEFC21671
:102A9000D104E104F10409F00CF459C160E472E4DA
:102AA0008FE090E0A50194010E94F61A69017A0175
:102AB00081E0C81AD108E108F108123009F0FEC01F
:102AC00082E09FEFC916D104E104F10409F00CF48F
:102AD0006CC060E970ED83E090E0A50194010E9474
:102AE000F61A69017A01A1E0CA1AD108E108F108D1
:102AF00083E0BFEFCB16D104E104F10409F00CF43C
:102B000054C068E478EE81E090E0A50194010E9451
:102B1000F61A69017A0181E0C81AD108E108F108C2
:102B200084E09FEFC916D104E104F104F1F1ECF166
:102B300064E274EF80E090E0A50194010E94F61A2F
:102B400069017A0181E0C81AD108E108F10885E03D
:102B5000FFEFCF16D104E104F10439F130F162E165
:102B60007AE780E090E0A50194010E94F61A6901DD
:102B70007A01B1E0CB1AD108E108F10886E0EFEF65
:102B8000CE16D104E104F10481F078F07301620102
:102B90009AE0F594E794D794C7949A95D1F741E0D9
:102BA000C41AD108E108F10887E09091B100987F3C
:102BB000892B8093B100D2C083EF93E00E94B005CF
:102BC00040E060E086E695E00E943A0468E074E048
:102BD00007CF8F3F09F0E6C083E080930001EAEE63
:102BE000F1E014911F3F09F4DDC0113029F150F0DC
:102BF000123009F440C017FDD5C061E083E00E94A7
:102C0000B3022ACF14BC15BC84B5826084BD85B5DF
:102C1000816085BDE9EDF1E08491E82FF0E0EE0FF1
:102C2000FF1FE453FE4F85919491EBEBF1E0E491AB
:102C3000E0939A0410E00ACF109280001092810075
:102C40008091810088608093810080918100816003
:102C500080938100E9EDF1E08491E82FF0E0EE0F40
:102C6000FF1FE453FE4F85919491EBEBF1E0E4916B
:102C7000E0939904EBCE1092B0001092B1008091D5
:102C8000B00082608093B0008091B1008160809339
:102C9000B100E9EDF1E08491E82FF0E0EE0FFF1FC5
:102CA000E453FE4F859194919093BB048093BA04B2
:102CB000EBEBF1E0E491E093BC04C8CEEFEFCE166D
:102CC000D104E104F10409F00CF488C068E478EE62
:102CD00081E090E0A50194010E94F61A69017A0151
:102CE000F1E0CF1AD108E108F10884E0111130CFEA
:102CF00083E0AFEFCA16D104E104F10459F154F1B5
:102D000062E17AE780E090E0A50194010E94F61A62
:102D100069017A0191E0C91AD108E108F10884E05B
:102D2000AFEFCA16D104E104F104A1F098F07301E9
:102D300062018AE0F594E794D794C7948A95D1F715
:102D400051E0C51AD108E108F10885E003C081E02F
:102D500011112BCF95B5987F892B85BD2D8D3E8D7B
:102D6000220F331FA8E7B0E00E94791B28EE33E062
:102D700040E050E00E94571B113009F467C0123048
:102D800009F476C011110EC0C7BC20939F04309384
:102D9000A0044093A1045093A20480916E0082602D
:102DA00080936E0020E030E040EA50E4698D7A8D37
:102DB0008B8D9C8D0E94361D18160CF0A4C820E047
:102DC00030E040E250E4698D7A8D8B8D9C8D0E94BD
:102DD000881B698F7A8F8B8F9C8FE4CF82E0B8CF6E
:102DE0008D8C9E8CAF8CB8A0AA24BB2460E072E1CD
:102DF0008AE790E0A50194010E94F61A69017A0120
:102E0000B1E0CB1AD108E108F10891E0C114D10476
:102E1000E1E0EE06F10484F068E478EE81E090E011
:102E2000A50194010E94F61A69017A01F1E0CF1A16
:102E3000D108E108F10893E0113009F08FCF8091BB
:102E40008100887F892B8093810088CFD092890070
:102E5000C092880020939B0430939C0440939D046F
:102E600050939E0480916F00826080936F009ACF90
:102E7000C092B3002093BD043093BE044093BF04BE
:102E80005093C004809170008260809370008ACF5C
:102E9000EF920F931F93CF93DF93E80134E047FD48
:102EA00034E1042E000C550B57FF03C0519541959A
:102EB0005109E32E022F242FAE010E948B17CE0161
:102EC000DF91CF911F910F91EF900895BB274A306A
:102ED00031F4992322F4BDE2909581959F4F0C9493
:102EE0007217BB27FB015527AA27880F991FAA1F16
:102EF000A41710F0A41B83955051B9F7A05DAA3315
:102F000008F0A95DA193009779F7B111B1931192DF
:102F1000CB010C94C219A9E0B0E0E1E9F7E10C940F
:102F2000261B6A01F22EB02E102FFBE3AF2EA01647
:102F300008F41BE31F5F012F27E0AE014F5F5F4FD7
:102F40000E94EA18BC018981982F9970913009F488
:102F50003FC09BE2E1FC04C09E2D9170E0FC3AC0B2
:102F60005E2D5071E82FE87083FF46C084E0911118
:102F700001C083E0EF2DE81B8F1508F0E0E0D601DB
:102F80008E2F20E2552351F1992329F0D6019C93ED
:102F9000C60101966C0196012D5F3F4FE2FE24C0F1
:102FA0008EE4D6018C9391E411969C93119712961E
:102FB0008C93D9018E2F90E281111BC0E20FF32F69
:102FC000F11D10828EEF9FEF2996ECE00C94421BCE
:102FD0009DE2C6CF90E2C4CF2D9381508111FCCFEA
:102FE000CE0ED11CE0E0D0CF8EE6D6018C9391E6D8
:102FF000DBCF9D938150E0CF482F447082FF3DC0CE
:1030000084E0911101C083E08F1510F4EF2DE81BCF
:10301000D6018E2F20E2552309F1992329F0D601FC
:103020009C93C60101966C0196012D5F3F4FE2FE15
:103030001BC089E4D6018C938EE411968C93119772
:1030400086E412968C93D9018E2F90E2882309F49E
:10305000B5CF9D938150FACF2D9381508111FCCF34
:10306000CE0ED11CE0E0D9CF89E6D6018C938EE656
:1030700011968C93119786E6E4CF9B0177FF02C0EF
:1030800030E020E0A1E0B0E0911102C0B0E0A0E0AB
:10309000F9013196AE0FBF1F8B2C912CBB2009F488
:1030A00061C05401EFEFAE1ABE0AAA0DBB1DFA169D
:1030B0001B0619F014F04F2D4A1B511188C0E3FC78
:1030C00059C07601A42FB0E2A1114FC0C40ED11C8B
:1030D000992309F45BC040E0D6011196F601908374
:1030E0006D01552309F448C0012F060F9A81582F0E
:1030F000507184FF03C0913309F4015010160CF095
:1031000047C0093008F008E0EEE2FE2E5B01A01A8D
:10311000B10885019194819491082F3F320729F4D9
:10312000D601FC92F60131966F016217730794F194
:10313000021713077CF5DB01A21BB30BAA24A3948F
:10314000B12CAC0EBD1EAA0DBB1D11968C91215049
:103150003109D601119628153905F4F0F60180835E
:103160006D01DBCFB12CA12CA0CFF701B1937F0172
:10317000A150AACF9111B0CFD601942F50E302C035
:103180005D9391509111FCCFC40ED11C40E0ACCFA7
:1031900001E0BACF80E3DBCF6217730731F49633D7
:1031A00088F4953311F4552369F0F6018083FD010D
:1031B000842F90E2811108C0A40FB11D1C9290E0F1
:1031C00080E002CF81E3F1CF91938150F3CF911151
:1031D00083CF8ACF283008F027E03327DA01990F10
:1031E000311D87FD916000966105710539F43260EB
:1031F0002E5F3D9330E32A95E1F708959F3F30F02D
:1032000080387105610509F03C5F3C5F3D9391306A
:1032100008F08068911DDF93CF931F930F93FF9267
:10322000EF92192F987F9695E92F96959695E90F2D
:10323000FF27E051FF4F99273327EE24FF24A701F2
:10324000E70105900894079428F4360FE71EF81E4E
:10325000491F511D660F771F881F991F0694A1F7FC
:103260000590079428F4E70EF81E491F561FC11D4C
:10327000770F881F991F661F0694A1F70590079482
:1032800028F4F80E491F561FC71FD11D880F991F1C
:10329000661F771F0694A1F70590079420F4490F45
:1032A000561FC71FD81F990F661F771F881F0694C8
:1032B000A9F784911095177041F0D695C795579549
:1032C0004795F794E7941A95C1F7E6E9F0E068941A
:1032D0001590159135916591959105907FE27395C3
:1032E000E118F10A430B560BC90BD009C0F7E10CEA
:1032F000F11E431F561FC91FD01D7EF4703311F4F9
:103300008A95E6CFE894015030F0080F0AF40027C0
:10331000021708F4202F2395022F7A3328F079E33F
:103320007D932A95E9F710C07D932A9589F6069436
:1033300097956795379517951794E118F10A430B00
:10334000560BC90BD00998F023957E9173957A336B
:1033500008F070E37C932013B8F77E9170617D9341
:1033600030F0839571E37D9370E32A95E1F71124A2
:10337000EF90FF900F911F91CF91DF91992787FDDB
:1033800090950895DC01FC01672F71917723E1F797
:10339000329704C07C916D9370836291AE17BF0722
:1033A000C8F308950E94141A08F481E00895E8947F
:1033B00009C097FB3EF490958095709561957F4F7D
:1033C0008F4F9F4F9923A9F0F92F96E9BB2793952B
:1033D000F695879577956795B795F111F8CFFAF43B
:1033E000BB0F11F460FF1BC06F5F7F4F8F4F9F4F6C
:1033F00016C0882311F096E911C0772321F09EE8CA
:10340000872F762F05C0662371F096E8862F70E02F
:1034100060E02AF09A95660F771F881FDAF7880F09
:103420009695879597F90895990F0008550FAA0B5F
:10343000E0E8FEEF16161706E807F907C0F01216C7
:103440001306E407F50798F0621B730B840B950BCA
:1034500039F40A2661F0232B242B252B21F408951F
:103460000A2609F4A140A6958FEF811D811D0895BC
:103470000E944B1A0C94BC1A0E94AE1A38F00E949B
:10348000B51A20F0952311F00C94A51A0C94AB1AE0
:1034900011240C94F01A0E94CD1A70F3959FC1F379
:1034A000950F50E0551F629FF001729FBB27F00DF2
:1034B000B11D639FAA27F00DB11DAA1F649F662747
:1034C000B00DA11D661F829F2227B00DA11D621F96
:1034D000739FB00DA11D621F839FA00D611D221F50
:1034E000749F3327A00D611D231F849F600D211D34
:1034F000822F762F6A2F11249F5750409AF0F1F0B7
:1035000088234AF0EE0FFF1FBB1F661F771F881F1F
:1035100091505040A9F79E3F510580F00C94A51A98
:103520000C94F01A5F3FE4F3983ED4F386957795B8
:103530006795B795F795E7959F5FC1F7FE2B880FC5
:10354000911D9695879597F9089597F99F6780E85B
:1035500070E060E008959FEF80EC089500240A94E5
:103560001616170618060906089500240A9412165E
:103570001306140605060895092E0394000C11F491
:10358000882352F0BB0F40F4BF2B11F460FF04C03E
:103590006F5F7F4F8F4F9F4F089557FD9058440F97
:1035A000551F59F05F3F71F04795880F97FB991FA2
:1035B00061F09F3F79F0879508951216130614065F
:1035C000551FF2CF4695F1DF08C0161617061806EC
:1035D000991FF1CF86957105610508940895E894C7
:1035E000BB2766277727CB0197F90895052E97FB10
:1035F0001EF400940E940D1B57FD07D00E94571B1C
:1036000007FC03D04EF40C940D1B5095409530955B
:1036100021953F4F4F4F5F4F08959095809570953E
:1036200061957F4F8F4F9F4F08950E94791BA59FF3
:10363000900DB49F900DA49F800D911D11240895AD
:103640002F923F924F925F926F927F928F929F92B2
:10365000AF92BF92CF92DF92EF92FF920F931F93A0
:10366000CF93DF93CDB7DEB7CA1BDB0B0FB6F89451
:10367000DEBF0FBECDBF09942A88398848885F8491
:103680006E847D848C849B84AA84B984C884DF8002
:10369000EE80FD800C811B81AA81B981CE0FD11DE6
:1036A0000FB6F894DEBF0FBECDBFED010895A1E2C5
:1036B0001A2EAA1BBB1BFD010DC0AA1FBB1FEE1FAC
:1036C000FF1FA217B307E407F50720F0A21BB30BF7
:1036D000E40BF50B661F771F881F991F1A9469F773
:1036E00060957095809590959B01AC01BD01CF01CF
:1036F0000895A29FB001B39FC001A39F700D811DCB
:103700001124911DB29F700D811D1124911D0895EA
:103710005058BB27AA270E94A01B0C94BC1A0E94D9
:10372000AE1A38F00E94B51A20F039F49F3F19F410
:1037300026F40C94AB1A0EF4E095E7FB0C94A51A52
:10374000E92F0E94CD1A58F3BA176207730784074E
:10375000950720F079F4A6F50C94EF1A0EF4E09595
:103760000B2EBA2FA02D0B01B90190010C01CA013B
:10377000A0011124FF27591B99F0593F50F4503EE6
:1037800068F11A16F040A22F232F342F4427585FD8
:10379000F3CF469537952795A795F0405395C9F7F0
:1037A0007EF41F16BA0B620B730B840BBAF09150A8
:1037B000A1F0FF0FBB1F661F771F881FC2F70EC047
:1037C000BA0F621F731F841F48F48795779567951A
:1037D000B795F7959E3F08F0B0CF9395880F08F006
:1037E0009927EE0F9795879508950E94AE1A60F07D
:1037F00080E891E009F49EEF0E94B51A28F040E8B5
:1038000051E071F45EEF0CC00C94AB1A0C94EF1AFB
:10381000E92FE0780E94CD1A40F3092E052AB1F372
:10382000261737074807590738F00E2E07F8E02506
:1038300069F0E025E0640AC0EF6307F8009407FA36
:10384000DB01B9019D01DC01CA01AD01EF930E94CA
:103850007E1C0E94BC1A0E94381C5F91552339F0CF
:103860002BED3FE049E450FD49EC0C94891B089591
:10387000DF93DD27B92FBF7740E85FE31616170601
:1038800048075B0718F4D92F0E943B1D9F938F9325
:103890007F936F930E94891DE8E6F0E00E940F1D60
:1038A0000E94BC1A2F913F914F915F910E944B1A39
:1038B000DD2351F09058A2EA2AED3FE049EC5FE3A6
:1038C000D0785D270E94A01BDF910C94BC1A0E9447
:1038D0007B1C0C94BC1A0E94B51A58F00E94AE1AB8
:1038E00040F029F45F3F29F00C94A51A51110C9473
:1038F000F01A0C94AB1A0E94CD1A68F39923B1F315
:10390000552391F3951B550BBB27AA276217730705
:10391000840738F09F5F5F4F220F331F441FAA1F99
:10392000A9F335D00E2E3AF0E0E832D09150504055
:10393000E695001CCAF72BD0FE2F29D0660F771F03
:10394000881FBB1F261737074807AB07B0E809F0E9
:10395000BB0B802DBF01FF2793585F4F3AF09E3F6E
:10396000510578F00C94A51A0C94F01A5F3FE4F31B
:10397000983ED4F3869577956795B795F7959F5FB1
:10398000C9F7880F911D9695879597F90895E1E0FD
:10399000660F771F881FBB1F621773078407BA075C
:1039A00020F0621B730B840BBA0BEE1F88F7E095B7
:1039B00008950E94E01C6894B1110C94F01A0895C7
:1039C0000E94D51A88F09F5798F0B92F9927B751C0
:1039D000B0F0E1F0660F771F881F991F1AF0BA95B3
:1039E000C9F714C0B13091F00E94EF1AB1E0089508
:1039F0000C94EF1A672F782F8827B85F39F0B93FFA
:103A0000CCF3869577956795B395D9F73EF4909565
:103A10008095709561957F4F8F4F9F4F0895DF93ED
:103A2000CF931F930F93FF92EF92DF927B018C0154
:103A3000689406C0DA2EEF010E944B1AFE01E8944A
:103A4000A5912591359145915591A6F3EF010E94DD
:103A5000A01BFE019701A801DA9469F7DF90EF90AF
:103A6000FF900F911F91CF91DF9108950E94141A3A
:103A700008F48FEF08959B01AC0160E070E080E8EE
:103A80009FE30C94671C19F416F40C94AB1A0C9475
:103A9000921D0E94D51AB8F39923C9F3B6F39F5724
:103AA000550B87FF0E94A01D0024A0E640EA90016C
:103AB00080585695979528F4805C660F771F881F6D
:103AC00020F026173707480730F4621B730B840B6E
:103AD000202931294A2BA6951794079420253125B2
:103AE0004A2758F7660F771F881F20F026173707D9
:103AF000480730F4620B730B840B200D311D411D00
:103B0000A09581F7B901842F9158880F96958795D4
:103B100008959B01AC010C94381A0E94141A880B6A
:103B2000990B08959F3F31F0915020F48795779538
:103B30006795B795880F911D9695879597F9089584
:103B400091505040660F771F881FD2F708950E944A
:103B5000791BB7FF0895821B930B0895EE0FFF1F8B
:103B60000590F491E02D09940F931F93CF93DF9369
:103B70008230910510F482E090E0E0918C05F091A4
:103B80008D0530E020E0B0E0A0E0309799F42115F9
:103B9000310509F44AC0281B390B24303105D8F50A
:103BA0008A819B816115710589F1FB019383828371
:103BB000FE0111C0408151810281138148175907CC
:103BC000E0F04817590799F4109761F012960C939A
:103BD000129713961C933296CF01DF91CF911F91CC
:103BE0000F91089500938C0510938D05F4CF211546
:103BF000310551F04217530738F0A901DB019A0152
:103C0000BD01DF01F801C1CFEF01F9CF90938D0520
:103C100080938C05CDCFFE01E20FF31F819391932A
:103C20002250310939832883D7CF20918A053091DA
:103C30008B05232B41F420912301309124013093F3
:103C40008B0520938A0520912101309122012115B5
:103C5000310541F42DB73EB7409125015091260121
:103C6000241B350BE0918A05F0918B05E217F307D1
:103C7000A0F42E1B3F0B2817390778F0AC014E5FDC
:103C80005F4F2417350748F04E0F5F1F50938B0589
:103C900040938A05819391939FCFF0E0E0E09CCF21
:103CA000CF93DF930097E9F0FC01329713821282E1
:103CB000A0918C05B0918D05ED0130E020E01097CA
:103CC000A1F420813181820F931F20918A053091C8
:103CD0008B052817390709F061C0F0938B05E09335
:103CE0008A05DF91CF910895EA01CE17DF07E8F545
:103CF0004A815B819E0141155105B1F7E901FB83C2
:103D0000EA8349915991C40FD51FEC17FD0761F45F
:103D1000808191810296840F951FE90199838883A0
:103D2000828193819B838A83F0E0E0E012968D91FB
:103D30009C9113970097B9F52D913C911197CD0166
:103D40000296820F931F20918A0530918B052817C8
:103D5000390739F6309751F510928D0510928C0580
:103D6000B0938B05A0938A05BCCFD383C2834081D7
:103D70005181840F951FC817D90761F44E5F5F4FBB
:103D800088819981480F591F518340838A819B8183
:103D9000938382832115310509F0B0CFF0938D050F
:103DA000E0938C059ECFFD01DC01C0CF138212820F
:103DB000D7CFB0E0A0E0EFEDFEE10C94221B8C0128
:103DC000009751F4CB010E94B41D8C01C801CDB7FE
:103DD000DEB7E0E10C943E1BFC01E60FF71F9C01EF
:103DE00022503109E217F30708F49DC0D901CD91A3
:103DF000DC911197C617D70798F0C530D10530F37D
:103E0000CE0104978617970708F3C61BD70B229796
:103E1000C193D1936D937C93CF010E94501ED6CF56
:103E20005B01AC1ABD0A4C018C0E9D1EA0918C0545
:103E3000B0918D05512C412CF12CE12C109731F5CE
:103E400080918A0590918B058815990509F05CC0D1
:103E50004616570608F058C0809121019091220122
:103E6000009741F48DB79EB74091250150912601EE
:103E7000841B950BE817F90708F055C0F0938B05E4
:103E8000E0938A05F90171836083A0CF8D919C91A5
:103E9000119712966C90129713967C901397A81511
:103EA000B90559F56C0142E0C40ED11CCA14DB04FB
:103EB00020F1AC014A195B09DA011296159780F0DE
:103EC0006282738251834083D9016D937C93E114A4
:103ED000F10471F0D7011396FC93EE93129776CF0D
:103EE00022968C0F9D1FF90191838083F301EFCF00
:103EF000F0938D05E0938C0569CF4816590608F4B8
:103F00002C017D01D3019ACFCB010E94B41D7C010D
:103F1000009749F0AE01B8010E94961FC8010E94A7
:103F2000501E870153CF10E000E050CFFB01DC01B1
:103F300002C001900D9241505040D8F70895FB0106
:103F4000DC0101900D920020E1F70895F894FFCF75
:103F5000FF1E1E1E1E1E1E1E1E1C1C1C1C1C1C1CAE
:103F60001C18181818181818181010101010101005
:103F70001000008E05800000000000C10121014EEC
:103F80000113027F015D0171010000000031042175
:103F900001980397030D0A0052656769737472658F
:103FA00020544343523042203D20005265676973DC
:103FB0007472652054494D534B30203D20005265AA
:103FC000676973747265205449465230203D200061
:103FD00052656769737472652041444D5558203DA0
:103FE00020005265676973747265204144435352DF
:103FF00042203D2000526567697374726520414418
:1040000043535241203D20005265676973747265C5
:10401000204449445230203D200052656769737442
:10402000726520544343523141203D200052656760
:10403000697374726520544343523142203D20001D
:10404000526567697374726520544343523143204B
:104050003D20005265676973747265204F43523189
:104060004148203D20005265676973747265204F96
:10407000435231414C203D20005265676973747290
:104080006520494352314C203D20005265676973D9
:104090007472652054434E543148203D20005265CF
:1040A0006769737472652054434E54314C203D202F
:1040B0000052656769737472652054494652312015
:1040C0003D200052656769737472652054494D53F1
:1040D0004B31203D2000526567697374726520542E
:1040E0004343523041203D2000526567697374722A
:1040F00065204F43523041203D200052656769736F
:10410000747265204F43523042203D200052656753
:1041100069737472652054434E5430203D20002D45
:104120002D2D2D2D2D2D2D2D2D2D2D2D2D2D2D2DBF
:104130002D2D2D2D2D2D2D2D2D2D2D2D2D2D2D2DAF
:104140002D2D2D2D2D2D2D2D2D2D2D2D2D2D2D2D9F
:104150002D2D2D2D2D2D2D2D2D2D2D2D2D2D2D2D8F
:104160002D2D2D2D2D2D2D2D2D2D006327657374B7
:1041700020706172746920210043616C696272C3AE
:10418000A93A200043616C6962726174696F6E2E96
:104190002E2E2020006563686563203A200056615A
:1041A0006C657572416666696E657230203A2000F2
:1041B00056616C657572416666696E657231203A4A
:1041C000200056616C657572416666696E65723273
:1041D000203A0056616C657572416666696E65725B
:1041E00033203A2000416D7031203A2000416D703B
:1041F00032203A2000506861736531203A20005027
:104200006861736532203A2000416D704D6F7965A9
:104210006E6E65203A20005068617365204D6F799D
:10422000656E6E65203A200020202020202020206E
:104230002020006E616E00696E66006F7666004E2B
:104240006F6E2D66657272657578004E6F6E2D66A5
:104250006572726575782000666572726575782082
:0442600020202000FA
:00000001FF
